:020000040000fa
:080000000002040000000000f2
:020000040000fa
:10000800a2020000a2020000a2020000a202000058
:10001800a2020000a2020000a2020000a202000048
:10002800a2020000a2020000a2020000a202000038
:10003800a2020000a2020000a2020000a202000028
:10004800a2020000a2020000a2020000a202000018
:10005800a2020000d2040000a2020000a2020000d6
:10006800a2020000a2020000a20200009e040000fa
:10007800a2020000a2020000a2020000a2020000e8
:10008800a2020000a2020000a2020000a2020000d8
:10009800a2020000a2020000a2020000a2020000c8
:1000a800a2020000a2020000a2020000a2020000b8
:1000b800a2020000a2020000a2020000a2020000a8
:1000c800a2020000a2020000a2020000a202000098
:1000d800a2020000a2020000a2020000a202000088
:1000e800a2020000a2020000a2020000a202000078
:1000f800a2020000a2020000a2020000a202000068
:10010800a2020000a2020000a2020000a202000057
:10011800a2020000a2020000a2020000a202000047
:10012800a2020000a2020000a2020000a202000037
:10013800a2020000a2020000a2020000a202000027
:10014800a2020000a2020000a2020000a202000017
:10015800a2020000a2020000a2020000a202000007
:10016800a2020000a2020000a2020000a2020000f7
:10017800a2020000a2020000a2020000a2020000e7
:10018800a2020000a2020000a2020000a2020000d7
:10019800a2020000a2020000a2020000a2020000c7
:1001a800a2020000a2020000a2020000a2020000b7
:1001b800a2020000a2020000a2020000a2020000a7
:1001c800a2020000a2020000a2020000a202000097
:1001d800a2020000a2020000a2020000a202000087
:1001e800a2020000a2020000a2020000a202000077
:0801f800a2020000a2020000b7
:020000040000fa
:10020800a2020000a2020000a2020000a202000056
:10021800a2020000a2020000a2020000a202000046
:10022800a2020000a2020000a2020000a202000036
:10023800a2020000a2020000a2020000a202000026
:10024800a2020000a2020000a2020000a202000016
:10025800a2020000d2040000a2020000a2020000d4
:10026800a2020000a2020000a20200009e040000f8
:10027800a2020000a2020000a2020000a2020000e6
:10028800a2020000a2020000a2020000a2020000d6
:10029800a2020000a2020000a2020000a2020000c6
:1002a800a2020000a2020000a2020000a2020000b6
:1002b800a2020000a2020000a2020000a2020000a6
:1002c800a2020000a2020000a2020000a202000096
:1002d800a2020000a2020000a2020000a202000086
:1002e800a2020000a2020000a2020000a202000076
:1002f800a2020000a2020000a2020000a202000066
:10030800a2020000a2020000a2020000a202000055
:10031800a2020000a2020000a2020000a202000045
:10032800a2020000a2020000a2020000a202000035
:10033800a2020000a2020000a2020000a202000025
:10034800a2020000a2020000a2020000a202000015
:10035800a2020000a2020000a2020000a202000005
:10036800a2020000a2020000a2020000a2020000f5
:10037800a2020000a2020000a2020000a2020000e5
:10038800a2020000a2020000a2020000a2020000d5
:10039800a2020000a2020000a2020000a2020000c5
:1003a800a2020000a2020000a2020000a2020000b5
:1003b800a2020000a2020000a2020000a2020000a5
:1003c800a2020000a2020000a2020000a202000095
:1003d800a2020000a2020000a2020000a202000085
:1003e800a2020000a2020000a2020000a202000075
:0803f800a2020000a2020000b5
:020000040000fa
:100400000f8120000e7f22000e01880000000000f6
:10041000000020000000e000020032000001200087
:10042000200288000c000700e0b520000100200039
:1004300011000700000020000000e0000200320070
:1004400000000200000000004c0402000000000058
:100450000040da000000fe004440a9000000200037
:100460000000e0000300320000002000a00188002e
:100470004440a80000000600910188008000780038
:100480000000eb0015003700e280400032a0b4000d
:100490009101ba00e280400032a0b4009102ba009b
:1004a000e280400032a0b4000002eb00472bde00e7
:1004b000f507b200602ce10004003a000059eb009f
:1004c0008301e900fdff3e00040037006128e100e0
:1004d000010032000082eb00040007001101ba00a5
:1004e0000200e000e8ff3a00000006003159ba00bf
:1004f0008301e9000c0032002159ba008301e900b0
:10050000080032000400e00003003a00e2804000ee
:1005100032a0b400f5ff370011d9ba008301e90019
:10052000faff3a008100e800e180400032a0b40008
:1005300000000600000000000000000000000000b5
:10054000000000000040da000000fe000001be00d4
:100550001b0007000470a70003f0a10003f8a3002c
:1005600013003a006509b10010003200090035009f
:100570006928e100020035000100280000000500a4
:1005800000004000818048008502e900fcff3a003d
:1005900000000600f88f4200050035008100d10000
:1005a0000080d3008502e800fcff3a00000006004e
:1005b0008000eb00000005006011b8004900370022
:1005c000c70ade00f107b200f50fb20008003200e2
:1005d000e1cf4200020032000170a00024000500bb
:1005e000810f70000100320004080500440005007e
:1005f000810f700002003a00140005008502e90036
:100600000000400081c04800fcff3b000170a000da
:1006100024000500889fbe008a9fbe008c1f7800c2
:10062000850007008c00330003866c006450e100f5
:10063000240032006420e100270032006150e10014
:10064000220032006120e100210032008b8542004f
:10065000eb07b1000134b800003ab80008044200ca
:1006600089844a00013ab8000030b8008880400010
:1006700009014a0004003300000040008180480066
:10068000020149008b05e900c909dd008301700002
:100690000100320013002000c814de004814dd0001
:1006a0004709de001200b200c808de0008847000ae
:1006b0003b00070001f0a1000cf0a70001f0a00032
:1006c0006e0037006120e100700032000801be00ba
:1006d0000200be00f7ff37006150e100fcff3a0066
:1006e0006a003700889fbe008a9fbe0000827000ab
:1006f0000402710004827100260032000004be0072
:100700000200be006011b8006b09200095022000b5
:100710000182cf000a0039000541b1000082cf00fc
:10072000070039000541b1000982cf0004003900fb
:100730000541b1000882cf00010039000541b10038
:1007400005425200120032000a003b008281710013
:10075000610164008100d1000080d3008984d3004e
:100760000884d3008b05e8000442e800f7ff3a0054
:10077000070037000804440089844c00000048004a
:10078000818048008b05e9000442e900f9ff3a0046
:10079000030007004f05be004f04be000000060026
:1007a00081002000618055000b003d000b002000ff
:1007b00061fe2f000100e1001d0034008281710004
:1007c000610164008904d1000884d3000000e800be
:1007d000faff3a007100200061006400030070001d
:1007e000020060000900320061044400e0844c0013
:1007f0000988a500050032008b05e8006808e100c3
:1008000002003a008904d1000884d300f20f2000ce
:100810000258e10005003d00c75ddd00f907b200a8
:100820008980750008007800000006000bf827009a
:100830008b007800000005000004be0060ff070088
:100840000003be000405be000200be005cff0700fe
:10085000844f7500000006000200be006450e100f5
:10086000050036006420e100020036000968a3009c
:1008700001003a000800be000160a0004f067800a9
:100880004f05be004f04be0000000600f0ff2f0021
:08089000f1ff2700f9ff37001a
:020000040000fa
:100898000000fa00245d200004000100de000700cb
:1008a800fa000700ab0107007b03070034002000b3
:1008b8000440880001003700000000003c020700e7
:1008c8000002780034408800050207000002780022
:1008d80024408800ce0107000002780014408800f8
:1008e800044080000500200036002000070020009a
:1008f800860f5200878f5a00efff3e000460010008
:1009080005003700080037000500370000003700f1
:100918008901070006003700f000070004003700cf
:100928001d01070002003700370107000000000022
:10093800e2ff3700849fbe003400f8000400200066
:10094800a40188000000fa008660a90055168000fe
:100958000402200004826200e00f52000b003a00fb
:1009680004408000e30f52000300320034002000ee
:10097800044088000500370004408000e30f52005f
:1009880002003a000002eb00044088000080fa00f0
:100998003400f9004f02be00004006003600f8009f
:1009a800809fbe00829fbe00849fbe00869fbe00bf
:1009b8003400f80000002000a00188000000fa00c0
:1009c80085a0a90035408000b4122000848f520011
:1009d80006003c000002eb0064408800445e2000f2
:1009e800400020000400010002003700140020002d
:1009f8006440880025408000b4122000848f520093
:100a080006003c000002eb0054408800445e2000d1
:100a180050002000040001000200370014002000ec
:100a28005440880015408000b4122000848f520082
:100a380006003c000002eb0044408800445e2000b1
:100a480060002000040001000200370014002000ac
:100a58004440880004408000e30f52004700320001
:100a680044408000e10f520009003a0054408000e1
:100a7800e00f520006003a0064408000e10f520087
:100a880003003a000002eb00044088003b003700f6
:100a980044408000e10f520009003a0064408000a1
:100aa800e10f520006003a0054408000e10f520066
:100ab80003003a0024002000044088002f0037007b
:100ac80044408000e10f520009003a005440800081
:100ad800e10f520006003a0064408000e00f520027
:100ae80003003a0024002000044088002300370057
:100af80044408000e10f520009003a005440800051
:100b0800e00f520006003a0064408000e00f5200f7
:100b180003003a0024002000044088001700370032
:100b280044408000e00f520009003a005440800021
:100b3800e00f520006003a0064408000e10f5200c6
:100b480003003a0014002000044088000b0037001e
:100b580044408000e00f520008003a0054408000f2
:100b6800e10f520005003a0064408000e10f520096
:100b780002003a0014002000044088000080fa00b7
:100b88003400f9004f03be004f02be004f01be0003
:100b98004f00be003600f900004006000000fa00d1
:100ba800c9e2a900c9c2a900c9a2a900cde2a8004a
:100bb800cdc2a800cda2a8000080fa00000006005f
:100bc8000200fa00000f780064408000e00f520035
:100bd80002003a00cde2a90001003700cde2a800ea
:100be80054408000e00f520002003a00cdc2a90034
:100bf80001003700cdc2a80044408000e00f520039
:100c080002003a00cda2a90001003700cda2a80039
:100c18000080fa00000006000000fa000002eb0065
:100c280054088800345c2000740888009408800008
:100c38000440a1000450a100940888008461a80021
:100c4800240c80000400a1000410a0000420a000cf
:100c5800240c880005368000f40f2e008482620080
:100c6800042021000502720004368800ce42a80044
:100c78000002eb00140c8800e4002000040c88003b
:100c880013e1a8000080fa00000006000000fa0046
:100c98008a61a800540c80000400a1000410a00080
:100ca8000420a000540c880015368000f40f2e0094
:100cb8008482620004302100050272001436880024
:100cc800ce82a8000002eb00440c8800e40020005b
:100cd800340c88000080fa00000006000000fa00ca
:100ce8001536800004fe2f00048262001436880046
:100cf800ce22a90005368000f40f2e0084826200ff
:100d0800042021000502720004368800ce42a800a3
:100d180074088000050020000400be0024fe0700bf
:100d28000002be000400be0006fe07000002be006e
:100d380004027800040c88002536800004fe2f0089
:100d48000482620024368800ce62a900153680002d
:100d5800f40f2e0084826200043021000502720024
:100d680014368800ce82a800740880000500200090
:100d78000400be000efe07000002be000400be0014
:100d8800f0fd07000002be0004027800340c880061
:100d98000080fa00000006000000fa0074088000d5
:100da800050020000400be0001fe07000002be008e
:100db8000400be00e3fd07000002be000402780044
:100dc800040c880074088000050020000400be00a0
:100dd800f7fd07000002be0062432300a3f52300cd
:100de8000400be0009fe07000002be000400be00a9
:100df800d4fd07000002be0004027800340c88000d
:100e08000080fa00000006000000fa007408800064
:100e1800050020000400be00e5fd07000002be003a
:100e28000400be00c7fd07000002be0004027800ef
:100e3800340c880074088000050020000400be00ff
:100e4800dbfd07000002be0062432300a3f5230078
:100e58000400be00edfd07000002be000400be0055
:100e6800b8fd07000002be0004027800040c8800e8
:100e78000080fa00000006000000fa0074088000f4
:100e8800050020000400be00c9fd07000002be00e6
:100e98000400be00abfd07000002be00040278009b
:100ea800040c880074088000050020000400be00bf
:100eb800bffd07000002be000400be00a1fd070040
:100ec8000002be0004027800340c88000080fa009a
:100ed800000006000000fa0005368000f40f2e001e
:100ee8000482620004368800ce42a90015368000cc
:100ef80004fe2f00048262002401b3001436880027
:100f0800ce22a80015368000f40f2e00048262005d
:100f180014368800ce82a9002536800004fe2f00f2
:100f2800048262003401b30024368800ce62a8002f
:100f38000080fa00000006000000fa000002eb0042
:100f4800040c88000002eb00340c88000080fa00d2
:100f5800000006000000fa002c03a9002c23a900b9
:100f68002c43a900041980000480a1000490a1006a
:100f780004198800041980000450a0000460a0002f
:100f88000470a000041988002043a80014198000e8
:100f980004d0a10004e0a10004f0a1001419880005
:100fa8002343a900141980000420a0000430a000e5
:100fb8000440a0000450a000141988002203a900ce
:100fc80025e3a90025198000f40f2e008482620011
:100fd800041020000502720024198800a4c0b30080
:100fe8000443780045322000864a78000002eb006e
:100ff800441988000002eb008419880021e3a80046
:1010080095a0a80085a0a9000080fa0000000600ad
:101018000200fa000002eb00040f780021e3a900a7
:101028000002eb004419880021e3a8002023a8004f
:10103800000000000419800061026200e00f520005
:10104800fcff32002003a90021e3a9000518800055
:101058001418800084824200241880008482420090
:101068003418800084824200441880008482420040
:1010780054188000848242006418800084824200f0
:1010880074188000848242008418800084824200a0
:101098009418800084824200a41880008482420050
:1010a800b418800084824200c41880008482420000
:1010b800d418800084824200e418800084824200b0
:1010c800f4188000048242004422de00040f7800f5
:1010d8001e027800040078000080fa000000060074
:1010e8000200fa000002eb00040f780021e3a900d7
:1010f800140020004419880021e3a8002023a80038
:10110800000000000419800061026200e00f520034
:10111800fcff32002003a90021e3a9000518800084
:1011280014188000848242002418800084824200bf
:10113800341880008482420044188000848242006f
:10114800541880008482420064188000848242001f
:1011580074188000848242008418800084824200cf
:101168009418800084824200a4188000848242007f
:10117800b418800084824200c4188000848242002f
:10118800d418800084824200e418800084824200df
:10119800f4188000048242004422de00040f780024
:1011a8001e027800040078000080fa0000000600a3
:1011b8000200fa000002eb00040f780021e3a90006
:1011c800240020004419880021e3a8002023a80057
:1011d800000000000419800061026200e00f520064
:1011e800fcff32002003a90021e3a90005188000b4
:1011f80014188000848242002418800084824200ef
:10120800341880008482420044188000848242009e
:10121800541880008482420064188000848242004e
:1012280074188000848242008418800084824200fe
:101238009418800084824200a418800084824200ae
:10124800b418800084824200c4188000848242005e
:10125800d418800084824200e4188000848242000e
:10126800f4188000048242004422de00040f780053
:101278001e027800040078000080fa0000000600d2
:101288000800fa00004f780011079800220798001c
:10129800330798003e029000e00f5200050032002c
:1012a8009e4278000582fb004c22dd00641688000f
:1012b800070037009e4278000582fb004422de00ca
:1012c800044278000482fb004c22dd00641688008a
:1012d8001e02900004427800614262000482fb0012
:1012e800610262004722dd0066168000f5f72f00d4
:1012f8008502630005027200641688001000200051
:10130800a7000700ccc2a80010002000a400070016
:10131800ccc2a90010002000a10007002e009000f8
:101328009f0007000080fa00000006000600fa008f
:10133800004f780011079800220798008001eb0001
:101348002e0190009e0090001e407800ccff070000
:10135800130020002e0190009e0090001e4078008f
:10136800c7ff07000080fa00000006000200fa002c
:10137800004f78001e427800e20220001100200091
:1013880004407800e9ff07000080fa00000006002a
:101398000000fa00c8e2a900c8c2a900c9e2a90071
:1013a800c9c2a900c9a2a900c982a900c05d2000bc
:1013b8007b00070013002000420021008000eb00a2
:1013c80030c0b300aeff0700130020004206200023
:1013d8008000eb0030c0b300a9ff070082022000a4
:1013e8008000eb0020c3b300d0ff0700820220007a
:1013f8008000eb0080c2b300ccff0700820220000f
:101408008000eb0080c0b300c8ff070082662000a0
:101418008000eb0010c0b300c4ff07008202200068
:101428008000eb0060c0b300c0ff0700820220000c
:101438008000eb00c0c0b300bcff07000080fa00ca
:10144800000006000400fa00100798000002eb00f4
:10145800040f7800070037001e0278009e029000f3
:10146800048242001442780004407800bfff07005d
:101478001e0fe8001e0278009e02900004824200bf
:1014880014427800e04f5200f3ff3a000080fa005f
:10149800000006000000fa00826620008000eb00d1
:1014a80010c0b300a1ff07000080fa00000006008a
:1014b8000400fa00204798003147980004082000eb
:1014c800040f78003e4290000482fb001e0f420089
:1014d8002e429000e14f520002003a00040420001e
:1014e8001e0f42001e02780004427800820220008b
:1014f8008000eb00044078008cff07008202200087
:101508008000eb0000ccb30088ff07000080fa00e1
:10151800000006000400fa0010079800ddff07002d
:101528000002eb00040f7800150037001e02780057
:10153800e80f5200080032001e0278009e02900058
:1015480004824200144278000440780087ff0700b4
:101558001e0fe8000a0037008040eb0010c0b300ff
:10156800d3ff07001e0278009e029000048242000a
:1015780014427800044078007cff07001e0fe80042
:101588001e0278009e0290000482420014427800f5
:10159800e04f5200e5ff3a000080fa000000060024
:1015a8000200fa00000f78000002eb0034088800ff
:1015b8001e0278006e22b9000402780064088800d0
:1015c800840880000440a1000450a1008408880019
:1015d80084e0a90011e1a8000000000025048000b3
:1015e8000408200004826200e00f5200fbff320072
:1015f80084e0a90011e1a9000080fa0000000600bb
:101608000200fa00000f78000002eb0004088800ce
:101618009e0278009403200004aab900040278000e
:1016280014088800240880000440a0000450a0008a
:10163800240888008460a90005e1a80000000000d3
:101648002404800068026200e00f5200fcff3200b0
:101658008460a90005e1a9000080fa0000000600e6
:101668000200fa00f4232000040f78001e0278001c
:1016780014088800240880000440a0000450a0003a
:10168800240888009460a8008460a90005e1a800e7
:101698000080fa00000006000000fa00c8a2a800b6
:1016a8008660a9009660a8006360a8000080fa0020
:0416b8000000060028
:020000040000fa
:1016bc000008000010000000000000000000000006
:020000040000fa
:020000040001f9
:0457f800ad7b000085
:020000040000fa
:020000040001f9
:0457fc003f3f00002b
:00000001FF
