:020000040000fa
:080000000002040000000000f2
:020000040000fa
:100008009a0200009a0200009a0200009a02000078
:100018009a0200009a0200009a0200009a02000068
:100028009a0200009a0200009a0200008004000070
:100038009a0200009a0200009a0200009a02000048
:100048009a0200009a0200009a0200009a02000038
:100058009a0200009a0200009a0200009a02000028
:100068009a0200009a0200009a020000c6040000ea
:100078009a0200009a0200009a0200009a02000008
:100088009a0200009a0200009a0200009a020000f8
:100098009a0200009a0200009a0200009a020000e8
:1000a8009a0200009a0200009a0200009a020000d8
:1000b8009a0200009a0200009a0200009a020000c8
:1000c8009a0200009a0200009a0200009a020000b8
:1000d8009a0200009a0200009a0200009a020000a8
:1000e8009a0200009a0200009a0200009a02000098
:1000f8009a0200009a0200009a0200009a02000088
:100108009a0200009a0200009a0200009a02000077
:100118009a0200009a0200009a0200009a02000067
:100128009a0200009a0200009a0200009a02000057
:100138009a0200009a0200009a0200009a02000047
:100148009a0200009a0200009a0200009a02000037
:100158009a0200009a0200009a0200009a02000027
:100168009a0200009a0200009a0200009a02000017
:100178009a0200009a0200009a0200009a02000007
:100188009a0200009a0200009a0200009a020000f7
:100198009a0200009a0200009a0200009a020000e7
:1001a8009a0200009a0200009a0200009a020000d7
:1001b8009a0200009a0200009a0200009a020000c7
:1001c8009a0200009a0200009a0200009a020000b7
:1001d8009a0200009a0200009a0200009a020000a7
:1001e8009a0200009a0200009a0200009a02000097
:0801f8009a0200009a020000c7
:020000040000fa
:100208009a0200009a0200009a0200009a02000076
:100218009a0200009a0200009a0200009a02000066
:100228009a0200009a0200009a020000800400006e
:100238009a0200009a0200009a0200009a02000046
:100248009a0200009a0200009a0200009a02000036
:100258009a0200009a0200009a0200009a02000026
:100268009a0200009a0200009a020000c6040000e8
:100278009a0200009a0200009a0200009a02000006
:100288009a0200009a0200009a0200009a020000f6
:100298009a0200009a0200009a0200009a020000e6
:1002a8009a0200009a0200009a0200009a020000d6
:1002b8009a0200009a0200009a0200009a020000c6
:1002c8009a0200009a0200009a0200009a020000b6
:1002d8009a0200009a0200009a0200009a020000a6
:1002e8009a0200009a0200009a0200009a02000096
:1002f8009a0200009a0200009a0200009a02000086
:100308009a0200009a0200009a0200009a02000075
:100318009a0200009a0200009a0200009a02000065
:100328009a0200009a0200009a0200009a02000055
:100338009a0200009a0200009a0200009a02000045
:100348009a0200009a0200009a0200009a02000035
:100358009a0200009a0200009a0200009a02000025
:100368009a0200009a0200009a0200009a02000015
:100378009a0200009a0200009a0200009a02000005
:100388009a0200009a0200009a0200009a020000f5
:100398009a0200009a0200009a0200009a020000e5
:1003a8009a0200009a0200009a0200009a020000d5
:1003b8009a0200009a0200009a0200009a020000c5
:1003c8009a0200009a0200009a0200009a020000b5
:1003d8009a0200009a0200009a0200009a020000a5
:1003e8009a0200009a0200009a0200009a02000095
:0803f8009a0200009a020000c5
:020000040000fa
:100400006f8020000e7f22000e0188000000000097
:10041000000020000000e000020032000001200087
:10042000200288000c00070020632000010020004b
:1004300011000700000020000000e0000200320070
:1004400000000200000000003e0402000000000066
:100450000040da000000fe004440a9000000200037
:100460000000e0000300320000002000a00188002e
:100470004440a80000000600910188008000780038
:100480000000eb0015003700e280400032a0b4000d
:100490009101ba00e280400032a0b4009102ba009b
:1004a000e280400032a0b4000002eb00472bde00e7
:1004b000f507b200602ce10004003a000059eb009f
:1004c0008301e900fdff3e00040037006128e100e0
:1004d000010032000082eb00040007001101ba00a5
:1004e0000200e000e8ff3a00000006003159ba00bf
:1004f0008301e9000c0032002159ba008301e900b0
:10050000080032000400e00003003a00e2804000ee
:1005100032a0b400f5ff370011d9ba008301e90019
:10052000faff3a008100e800e180400032a0b40008
:10053000000006000040da000000fe0003f0a20008
:10054000889fbe008a9fbe008c1f78008300070032
:100550008a0033006450e1004f0032006420e10063
:100560005200320003826c0007003b000905d000f6
:100570000306d000820f54000c065d000200390013
:100580000200320089017800030678008582550058
:1005900004003d000003fd008103fd008502ea0028
:1005a0008b854200840f720002003b006000100047
:1005b000e08018006011b8000005eb007a28e10027
:1005c0000a00390006007800c75ddd00f707b200b9
:1005d000878075002d003700828171000a01780044
:1005e000610560008180d1000080d3008502e900b0
:1005f000f9ff3b00060440008784480002003b00ee
:1006000060041400e0841c000988a3000700320085
:100610008a81710082817100610164008904d100c6
:100620000884d3008b05e800170037000978a30081
:1006300013003a000b00e000130034008b05e900c2
:100640000804440089844c000a4474000978a3001b
:100650000d003a000b00e000070034008b05e900b4
:100660000804440089844c0001003a000b0020007b
:100670000978a300f7ff32000001eb000200370009
:10068000828171000a0178000e0007000cf0a700bb
:1006900001f0a000420037006420e10002003a00af
:1006a000838f6c00420033000801be000200be00d0
:1006b0003b0037001400200040003700f4ff2f00fb
:1006c0003e00370081002000618055000b003d0096
:1006d0000b00200061fe2f000100e1001d0034002e
:1006e00082817100610164008904d1000884d30013
:1006f0000000e800faff3a00710020006100640089
:100700000300700002006000090032006104440030
:10071000e0844c000988a500050032008b05e80044
:100720006808e10002003a008904d1000884d3007f
:10073000f20f20000258e10005003d00c75ddd001a
:10074000f907b200898075000800780000000600f3
:100750000bf827008b007800000005000004be00a5
:10076000310007000003be000405be000200be0009
:100770002d000700844f7500000006000200be0037
:100780006450e100050036006420e10002003600fc
:100790000968a30001003a000800be000160a00043
:1007a0004f0678004f05be004f04be000000060053
:1007b000f0ff2f00f1ff2700f9ff3700889fbe00f0
:1007c0008a9fbe00841f7800e4ff07004f00780076
:1007d00011003300f0ff2f00838f6c0006003b00f8
:1007e000040565000a00a7000800370009f0a6000c
:1007f0001000200008003700820f5400838f5c0037
:10080000030039001000200001003e00000020001d
:1008100009f0a7000000ea004f05be004f04be002b
:100820000000e00000000600c70ade00f107b20089
:10083000f50fb20008003200e1cf420002003200a2
:100840000170a00024000500810f7000010032003b
:100850000408050044000500810f700002003a0002
:10086000140005008502e9000000400081c0480036
:0c087000fcff3b000170a000240005000c
:020000040000fa
:10087c000000fa00b5000700bf000700cc0007001d
:10088c000002eb000440880001003700000000006b
:10089c0004408000050020003600200007002000e6
:1008ac00860f5200878f5a00f8ff3e00046001004b
:1008bc000300370005003700070037000900370038
:1008cc0040002000c1000700090037005000200044
:1008dc00be0007000600370060002000bb000700c8
:1008ec000300370070002000b80007000000000073
:1008fc00e7ff37003600f800809fbe00829fbe00e5
:10090c00849fbe00869fbe003400f80000002000cb
:10091c00a00188000000fa008460a9001440800047
:10092c00254080000200200003f823000400be00d4
:10093c0000ff07000002be0014408800254088001c
:10094c00551680000402200004826200e00f520061
:10095c00030032006022b800144088002540880053
:10096c000080fa003400f9004f03be004f02be00b5
:10097c004f01be004f00be003600f90000400600db
:10098c003600f800809fbe00829fbe00849fbe0090
:10099c00869fbe00881f78003400f80000002000fd
:1009ac00a00188000000fa008660a900551680009e
:1009bc000402200004826200e00f520005003a009d
:1009cc000002eb00040888006022b8001440880084
:1009dc002540880055168000040220000482620025
:1009ec00e00f5200250032001440800025408000aa
:1009fc0018c0b30002002000030024000400be0055
:100a0c0029ff070000027800e00f520001003500ba
:100a1c000044eb00e04f540018003200044080000a
:100a2c00e00f520003003a0014002000044088003c
:100a3c003d00370004408000e10f520003003a00f3
:100a4c002400200004408800370037000440800058
:100a5c00e20f520003003a003400200004408800ea
:100a6c003100370004408000e30f52002d003a00a3
:100a7c000002eb00044088002b0037005516800064
:100a8c000402200004826200e00f520026003200b3
:100a9c00144080002540800018c0b30002002000e4
:100aac00030024000400be0001ff070000027800d0
:100abc00e00f520001003d000044eb00e04f5400f9
:100acc001900320004408000e00f520003003a008d
:100adc0034002000044088001300370004408000dc
:100aec00e10f520003003a000002eb0004408800c2
:100afc000d00370004408000e20f520003003a0062
:100b0c0014002000044088000700370004408000d7
:100b1c00e30f520004003a00240020000440880037
:100b2c0001003700000000000080fa003400f900da
:100b3c004f0478004f03be004f02be004f01be00b1
:100b4c004f00be003600f900004006000000fa001d
:100b5c00c9e2a900c9c2a900c9a2a900c982a900f9
:100b6c00cde2a800cdc2a800cda2a800cd82a800dd
:100b7c000080fa00000006000200fa00f40f2e00bc
:100b8c00040f78001e0278001408880024088000e6
:100b9c000440a0000450a000240888009460a80021
:100bac008460a90005e1a8000080fa00000006009e
:100bbc000000fa00c8a2a8008660a9009660a800f0
:100bcc006360a8000080fa00000006000200fa0032
:100bdc00000f78001e027800e40f520005003a0066
:100bec00cde2a900cdc2a800cda2a800cd82a8005c
:100bfc00170037001e027800e50f520005003a007e
:100c0c00cde2a800cdc2a900cda2a800cd82a8003b
:100c1c000f0037001e027800e60f520005003a0064
:100c2c00cde2a800cdc2a800cda2a900cd82a8001b
:100c3c00070037001e027800e70f520004003a004c
:100c4c00cde2a800cdc2a800cda2a800cd82a900fb
:080c5c000080fa000000060010
:020000040000fa
:100c64000008000006000000000000000000000072
:020000040000fa
:020000040001f9
:0457f800ad7b000085
:020000040000fa
:020000040001f9
:0457fc003f3f00002b
:00000001FF
